:020000040800F2
:10000000589D0020DD010008E5010008E701000817
:10001000E9010008EB010008ED0100080000000004
:100020000000000000000000000000004501000882
:10003000F101000800000000890100081D0F000800
:10004000F7010008F7010008F7010008F7010008B0
:10005000F7010008F7010008F7010008F7010008A0
:10006000F7010008F7010008F7010008F701000890
:10007000F7010008F7010008F7010008F701000880
:10008000F7010008F7010008F7010008F701000870
:10009000F7010008F7010008F7010008F701000860
:1000A000F7010008F7010008F7010008F701000850
:1000B000F7010008F7010008F7010008F701000840
:1000C000F7010008F7010008F7010008F701000830
:1000D000F7010008F7010008F7010008F701000820
:1000E000F7010008F7010008F7010008F701000810
:1000F000F7010008F7010008F7010008F701000800
:10010000F7010008F7010008F7010008F7010008EF
:10011000310F0008F7010008F7010008F701000897
:10012000F7010008F7010008F7010008F7010008CF
:10013000DFF80CD003F08AF800480047730E00087F
:10014000589D0020224B19680868B0E8F00F80F332
:100150000988BFF36F8F4FF0000080F311884EF0D5
:100160000D0E70470000000006480068006880F32C
:10017000088862B661B6BFF34F8FBFF36F8F00DFA1
:1001800000BF00BF08ED00E0EFF30980BFF36F8F01
:100190000F4B1A6820E9F00F106008B54FF05000BF
:1001A00080F31188BFF34F8FBFF36F8F02F0FDF81C
:1001B0004FF0000080F31188BDE808401968086816
:1001C000B0E8F00F80F30988BFF36F8F704700BF6E
:1001D0003C000020EFF30580704700000648804790
:1001E00006480047FEE7FEE7FEE7FEE7FEE7FEE71C
:1001F000FEE7FEE7FEE7FEE7A10200083101000886
:100200000CB500224C4800920192016841F4803103
:1002100001604FF4A063016801F40031019100997D
:10022000491C0091019911B900999942F3D10168D3
:10023000890333D50121019140490A6842F0100237
:100240000A600A6822F003020A600A6842F00202A9
:100250000A604168416041684160416841F48061E1
:100260004160416821F47C114160416841F4E8112A
:100270004160016841F08071016001688901FCD52D
:10028000416821F003014160416841F00201416091
:100290004168C1F381010229FAD10CBD01920CBD64
:1002A000254810B5016841F0010101604168244A08
:1002B000114041600168234A11400160016821F446
:1002C00080210160416821F4FE0141604FF41F016B
:1002D0008160FFF795FF1C494FF00060086010BD7A
:1002E000154A10B55068194B10F00C01184803D08E
:1002F000042901D0082901D0036012E05168536835
:1003000001F470114FF0020413F4803F04EB9141AB
:1003100002D053689B0301D50E4B00E00B4B5943B1
:10032000016051680A4AC1F30311121D515C026851
:10033000CA40026010BD00000010024000200240D0
:100340000000FFF8FFFFF6FE08ED00E000127A0063
:100350000000002000093D002849084328490860A2
:10036000704730B50F23C27801780125F2B1244AD5
:10037000126801F1E02102F4E062C2F5E062120AC3
:10038000C2F10404D3404278A24084781C40144354
:10039000220181F80024007800F01F018D404009FF
:1003A000800000F1E020C0F8005130BD01F01F00D6
:1003B00085404809800000F1E020C0F8805130BD40
:1003C000104A114001430E48001F016070470C4A5B
:1003D000121D0029116801D0014300E08143116022
:1003E00070474FF0E0210428086903D020F0040092
:1003F0000861704740F00400FAE700000000FA05C9
:100400000CED00E080FFFF1F8F4910B5884206D138
:100410000121042000F049FA002104203BE08B492F
:10042000884206D10121082000F03FFA002108206F
:1004300031E08749884206D10121102000F035FAC9
:100440000021102027E08349884206D10121202085
:1004500000F02BFA002120201DE07F49884206D1C0
:100460000121402000F021FA0021402013E07B49C7
:10047000884206D10121802000F017FA0021802057
:1004800009E0774988420AD184150121204600F00D
:100490000CFA00212046BDE8104000F006BA10BD5D
:1004A00010B50121084600F000FA0021BDE8104017
:1004B000012000F0FAB9F0B5CC78002204F00F0367
:1004C000E40601D58C7823430C784FF00F0C14F020
:1004D000FF0F4FF0010E1BD005680E880EFA02F4D4
:1004E0002640A64210D196000CFA06F725EA070727
:1004F00003FA06F5CE783D43282E02D0482E02D0CE
:1005000002E0446100E00461521C082AE5D3056062
:100510000A88FF2A1CD94468002202F108060EFA54
:1005200006F50E882E40AE420ED196000CFA06F764
:10053000BC4303FA06F7CE783C43282E00D1456130
:10054000CE78482E00D10561521C082AE5D34460BC
:10055000F0BD4FF6FF710180022181700421C1704E
:1005600070470246002092680A4200D0012070477E
:10057000806880B2704702460020D2680A4200D0EC
:1005800001207047C06880B27047016170474161C7
:1005900070470AB10161704741617047C16070479F
:1005A00041F4803282618161826181698069704732
:1005B0002C4B10B51A684FF68074224042EA0010A6
:1005C0000843186010BD2849C8617047F0B5254C34
:1005D000002801DAE36900E06368450D2E0185B269
:1005E000C0F30157B540C0F30342032F05D0C60244
:1005F0000AD503269640B34307E023F07062636890
:1006000023F07063636002E0AB4343F0706201B1BA
:100610002A43002801DAE261F0BD6260F0BD10B546
:100620008A0721F003040F49120F21440F238C681D
:1006300093409C438C608B68904003438B6010BD5B
:100640000949C1F8DC00704700080140000C014076
:10065000001001400014014000180140001C01403E
:10066000002001400000014000002042A548016830
:1006700041F0010101604168A34A114041600168F5
:10068000A24A11400160016821F4802101604168A3
:1006900021F4FE0141604FF41F01816070479949C8
:1006A0000A6822F480320A600A6822F480220A6012
:1006B000B0F5803F07D0B0F5802F03D1086840F433
:1006C000A02008607047086840F48030F9E70346CE
:1006D000002059098B4A01290AD002290AD0516AFF
:1006E00003F01F02012393400B4200D0012070470A
:1006F0001168F5E7116AF3E718B500204FF4A0641C
:1007000000903120FFF7E3FF0099491C0091A142BE
:1007100001D00028F5D03120FFF7D9FF002800D004
:10072000012018BD774A116821F0F80141EAC000A4
:1007300010607047764908607047724B5A680843EA
:1007400022F47C1210435860704771490866704764
:100750006C4A516821F003010143516070476948B8
:10076000406800F00C007047664A516821F0F001C3
:10077000014351607047634A516821F4E0610143CD
:10078000516070475F4A516821F4605141EAC000EE
:10079000506070475B4A0029517A01D0014300E064
:1007A0008143517270475A49C1F8D8007047554A81
:1007B000516821F440410143516070475149002282
:1007C00081F8202081F82020012802D0042802D1BD
:1007D000052081F8200070474E490860704749495C
:1007E0000A6A02430A6270474A49443908607047FE
:1007F00030B5444A5168484B11F00C0103D004292C
:1008000001D0082901D0036012E05168536801F457
:1008100070114FF0020413F4803F04EB914102D0B9
:1008200053689B0301D53D4B00E03B4B59430160AE
:1008300051680F2303EA1111394B5C5C0168E140F8
:1008400041605468072505EA14241C5D21FA04F46C
:100850008460546805EAD4241B5DD940C1605268A5
:10086000032303EA92322E4B1B1F9A5CB1FBF2F179
:10087000016130BD234A0029516901D0014300E0E4
:100880008143516170471F4A0029916901D001439A
:1008900000E08143916170471A4A0029D16901D073
:1008A000014300E08143D1617047164A0029D168B5
:1008B00001D0014300E08143D1607047114A002913
:1008C000116901D0014300E0814311617047114972
:1008D0004039086070470E49C86470470949C871BB
:1008E00070470848416A41F0807141627047054A8B
:1008F0000146002092680A4200D001207047014959
:1009000088727047001002400000FFF8FFFFF6FEFB
:10091000000042428004424200127A0000093D0079
:1009200018000020C44910B588420AD101218C0367
:100930002046FFF7BAFF2046BDE810400021FFF730
:10094000B4BFBE49884202D101214C0410E0BC4929
:10095000884202D101218C040AE0BA49884202D1BE
:100960000121CC0404E0B84988420AD101210C05D8
:100970002046FFF7A3FF2046BDE810400021FFF707
:100980009DBF10BD30B50446008A85B00D464CF6BB
:10099000FF710840E98801432182A0894EF6F311D6
:1009A0000840A9882A8911436A8902431143A18119
:1009B000A08A4FF6FF410840A9890143A1826846F9
:1009C000FFF716FF9C48844201D1039800E002988B
:1009D000A189090400EBC00101EB0010296801D5D1
:1009E000490000E08900B0FBF1F06422B0FBF2F1B5
:1009F00009010B096FF018056B4300EB8300A38915
:100A00001D044FF0320306D503EBC000B0FBF2F03B
:100A100000F0070005E003EB0010B0FBF2F000F07F
:100A20000F000843208105B030BD4FF4165101601E
:100A300000218180C18001810C2242818181704727
:100A400010B5028A4FF2FF031A400B884C882343EB
:100A50008C88C9880C4323431343038210BD0021B3
:100A6000018041808180C18070470029818902D046
:100A700041F4005101E021F400518181704710B52B
:100A8000C1F3421301F01F040121A140012B07D043
:100A9000022B07D01430002A026805D00A4304E074
:100AA0000C30F8E71030F6E78A43026010BD002AE8
:100AB000828A01D00A4300E08A4382827047028A18
:100AC00022F00F020282028A0A4302827047828960
:100AD00022F40062828182890A4382817047002960
:100AE000818902D041F0020101E021F002018181FF
:100AF0007047028A22F020020282028A0A4302829E
:100B000070470029018A02D041F4804101E021F4BC
:100B1000804101827047C1F308018180704780885D
:100B2000C0F308007047818941F00101818170475D
:100B3000028BD2B20283028B42EA01210183704709
:100B4000028B02F47F420283028B0A4302837047C6
:100B50000029818A02D041F0200101E021F020012A
:100B6000818270470029818A02D041F0100101E0A2
:100B700021F01001818270470029818A02D041F062
:100B8000080101E021F00801818270470029818974
:100B900002D041F4004101E0C1F30E0181817047B0
:100BA0000029818A02D041F4006101E021F4006152
:100BB00081827047828A22F004028282828A0A43FA
:100BC000828270470029818A02D041F0020101E04F
:100BD00021F00201818270470246002012880A42F9
:100BE00000D001207047C9430180704770B501F003
:100BF0001F0501260024C1F3421306FA05F2012B5A
:100C00000FD0022B0FD0838A4FEA112100881342A4
:100C100006FA01F600EA060001D000B101242046E0
:100C200070BD8389F0E7038AEEE70A0A012191404B
:100C3000C943018070470000003801400044004073
:100C400000480040004C004000500040704738B55C
:100C50005020EFF3118480F31188BFF34F8FBFF35F
:100C60006F8F684D40F225512846FFF7BFFF58B1FE
:100C70002846FFF754FF8DF80000634800231A460A
:100C80006946006800F002FE84F3118838BD30B573
:100C9000044687B001211020FFF7F5FD0121C804AB
:100CA000FFF7FAFD4FF48061ADF8101018218DF8B0
:100CB00013100320554D8DF8120004A92846FFF7A4
:100CC000FAFBE814ADF8100004218DF8131004A904
:100CD0002846FFF7F0FB00940024ADF808400C20F4
:100CE000484DADF80440ADF80A00ADF80640ADF847
:100CF0000C4069462846FFF745FE34218DF8141054
:100D000008208DF815008DF8164001208DF8170089
:100D100005A8FFF726FB012240F225512846FFF7E0
:100D2000AEFE01212846FFF7A0FE07B030BD10B58A
:100D30000446FFF7F0FE80212046FFF74DFF002814
:100D4000F9D010BD2DE9F04115460E4607460024A6
:100D500005E0315D3846FFF7EAFF641CE4B2AC42BF
:100D6000F7D340213846FFF737FF0028F9D0BDE818
:100D7000F08170B50D46064600243046295DFFF728
:100D8000D6FF641C285D0028F7D140213046FFF7CC
:100D900023FF0028F9D070BD70B50446080ACDB213
:100DA00001462046FFF7B7FE80212046FFF714FFDB
:100DB0000028F9D029462046FFF7ADFE80212046C5
:100DC000FFF70AFF0028F9D070BD70B50D4D04463D
:100DD000C1B22846FFF79FFE80212846FFF7FCFEA0
:100DE0000028F9D0204670BD10B5064C20212046C1
:100DF000FFF7F2FE0028F9D02046BDE81040FFF7CB
:100E00008EBE0000004C0040380000200010014061
:100E100041F2883426A002F02BFA204601F0FDF9B9
:100E2000F8E71CB502F018F924490320CDE90001C8
:100E30004FF400740023224621A1244801F027F832
:100E4000012802D122A002F013FA1C490220091D38
:100E5000CDE900010023224623A1264801F017F81E
:100E60001648001F006801F03DF8BDE81C4002F084
:100E70000DB91CB54FF44070FFF76EFA1E4800F034
:100E8000CDF81EA002F0F4F90C490120091FCDE9AC
:100E90000001420200231CA11F4800F0F8FF0128B6
:100EA00002D04FF0FF301CBD01F097FBFEE70000C1
:100EB0004B45595F5461736B200D0A002C000020D4
:100EC0004B45595F5461736B00000000110E000820
:100ED0006372656174204B45595F5461736B206F79
:100EE0006B21200D0A000000636C695F7461736BF5
:100EF000000000007112000880841E0046726565C3
:100F000052544F53200D0A004170705461736B436B
:100F10007265617465000000230E000810B501F0D1
:100F2000B8FC012803D0BDE8104002F0C0B810BDE5
:100F300010B5FFF78CFEBDE81040FFF787BE00003C
:100F400070B5FE4D002405EB0410406808B102F0B6
:100F50008FF9641CE4B2042CF5D3012070BD10B5E8
:100F6000F7A002F085F9F8A002F082F9F8A002F0EB
:100F70007FF9F8A002F07CF9012010BD10B561B135
:100F800058B14078F549312809D030284FF0000099
:100F900004D10870F2A002F06BF9012010BD01200D
:100FA0000870F2A0F7E7F4A002F062F9F9A002F0ED
:100FB0005FF9F8A002F05CF9F7480168F74A01F41C
:100FC000E06111430160BFF34F8FFEE710B5F44BB2
:100FD0000446012093F80025002A1ED01846012C53
:100FE00090F8020509D0012802D9401E83F80205B5
:100FF00093F8020593F801250AE09042F8D2401CCC
:10100000F4E712B1521ED2B200E00922401EC0B273
:101010000028F6D103EBC2120A6010BD70B5044679
:1010200000220121802000F007FBCC49486040F2FB
:101030000351DB4802F0B3F82046FFF728FEBF4D0E
:10104000002405EB0410806828B1804718B92146B8
:10105000D4A002F00DF9641CE4B2042CF1D3D8A0A2
:1010600002F006F9B6A002F003F9B7A002F000F909
:10107000B8A002F0FDF8B6A002F0FAF8D1A002F094
:10108000F7F8D9A002F0F4F8D9A002F0F1F8E1A045
:1010900002F0EEF8E8A002F0EBF8F0A002F0E8F8B9
:1010A000BDE87040C7A002F0E3B8F8B5BC4E002719
:1010B000813E0446009796F88000022836D9E9A1BF
:1010C000304602F077F858B1012596F88010E6A076
:1010D00002F0CEF8E6A002F0CBF86946012010E05D
:1010E000AF48E4A1813802F065F878B3022596F89C
:1010F0008010DDA002F0BCF8DDA002F0B9F869466E
:101100000020FFF763FF98B3012800D075B196F86F
:101110008010D5A002F0ACF8D5A002F0A9F8A04844
:101120008121813802F03BF8002D3DD196F88000F6
:10113000A04239D9D04D96F88000A04234D9315D13
:101140002846FFF7E8FC641CE4B2F4E7FFE79448A4
:10115000CAA1813802F02EF808B10325D7E79048DC
:10116000C7A1813802F026F80028DFD00425CEE799
:10117000FFE78B488121813802F011F8009802F0D6
:101180002BF8024686480099813801F0EFFF00985D
:1011900002F022F8C0B286F88000814937548139C4
:1011A000B8A002F065F8BFE7F8BD2DE9F0477C4F25
:1011B0000026813F781E97F880103246012915D00D
:1011C00019D90B5C0D2B16D1DFF870A190460A548B
:1011D00000250AEB0514206801F0FEFF0246704866
:1011E0002168813802F00CF838B133E0085C0D2832
:1011F00001D187F88020BDE8F0870126206801F042
:10120000EBFF97F88010081A00F0FF09206801F042
:10121000E3FFE26838441AB349469047A0B19AA068
:1012200002F026F85E48813800F038F84B48007824
:1012300001280FD197F8801096A007F8018058492F
:10124000813902F015F805E096A002F011F8606807
:1012500002F00EF86D1CEDB2042DBAD316B104E005
:1012600095A0F5E799A002F003F887F88080C2E71F
:101270004B4D0026813D95F8804000F04CF820460B
:10128000FFF713FFFFF791FF95F88000802801D347
:1012900085F88060322000F0C0FFECE72DE9F041D6
:1012A0003F4C070094F8016533D001F095FF85B2FB
:1012B000802D2ED216B1761EF0B200E0092004EB8C
:1012C000C0102A46394601F08EFF0026F8B194F886
:1012D0000105802104EBC01001F061FF94F80105C5
:1012E0002A4604EBC010394601F040FF94F800058F
:1012F0000A2802D2401C84F8000594F80105401C1D
:10130000C0B284F801050A2801D384F8016584F885
:101310000265BDE8F08170B5214D813D95F88000F2
:10132000802808D241190D4800231A46406800F071
:1013300078FB012801D0002070BDD5E0F63400080C
:101340001B5B313B34306D001B5B313B33326D0036
:101350001B5B48001B5B324A000000003400002089
:101360006563686F206F66660D0A00006563686FCD
:10137000206F6E0D0A0000000D0A5B454E445D3A79
:101380002053797374656D205265626F6F74696E56
:10139000670000002E0000000CED00E00400FA05DC
:1013A000210100200D0A2D3E2046554E5B25645D2F
:1013B00020494E49542057524F4E470D0A00000015
:1013C000200D0A002D2D2D2D2D2D2D2D2D2D2D2DCA
:1013D0002D2D2D2D2D2D2D2D2D2D2D2D2D2D2D2D3D
:1013E0002D2D0D0A0D0A00001B5B376D000000005B
:1013F00020202020434C492076657273696F6E3A35
:101400002056302E362020202020202020200D0A9B
:101410000D0A000020202020636F6465723A20438B
:101420006174202020202020202020202020202027
:1014300020200D0A0D0A000020202020456D616942
:101440006C3A203834333535333439334071712EAA
:10145000636F6D2020200D0A0D0A00001B5B3237E0
:101460006D0000001B5B41001B5B25644400000015
:101470001B5B4B001B5B4200004C00401B5B4300AE
:101480001B5B4400257300000D0A2D3E204F4B0DC1
:101490000A0000005B6563686F5D3A2025730D0AE2
:1014A000000000000D0A2D3E20504152412E2045E3
:1014B00052520D0A000000000D0A2D3E2046554EE6
:1014C000432E204552520D0A000000000D0A2D3E09
:1014D00020434D44204552522C207472793A2068A2
:1014E000656C700D0A0D0A000D4C94F88000215CAB
:1014F000082906D009293FF411AF401C84F8800068
:101500000CE70028FCD0012106A001F0B1FE07A0E5
:1015100001F0AEFE14F8800F401E2070FEE60000C1
:10152000A00000201B5B2564440000001B5B4B00F7
:1015300000F108014FF0FF32C0E90112C160016102
:1015400000210160704700210161704742684A60D4
:1015500093688B6093685960916008610168491CC9
:101560000160704730B50C68621C02D000F10802BF
:1015700002E0026904E01A4653681D68A542FAD9E0
:1015800053684B6099608A60516008610168491C2A
:10159000016030BDD0E9013201699A60D0E90123D0
:1015A0005A604A68824201D182684A600022026120
:1015B0000868401E0860704770B50D46040005D1EC
:1015C0004FF48C72F7A1FEA001F052FE01F044FD31
:1015D000D4E90F20216802FB001161600021A163A2
:1015E0002168A1600A46D4E90F01401E00FB0121D9
:1015F000E16021464FF0FF3001F8440F487004F1DC
:1016000010004DB1FFF794FF04F12400FFF790FFA5
:1016100001F03CFD012070BD21690029F8D001F0E6
:1016200082F80028F4D0EA494FF080500860BFF3F8
:101630004F8FBFF36F8FEBE770B50E46050005D1F6
:1016400040F27B12D7A1DEA001F012FE96B105FB9D
:1016500006F0483001F0AAFB040009D004F148016B
:1016600020464EB10160C0E90F560121FFF7A4FFEB
:10167000204670BD0020ECE70060F4E72DE9F04162
:10168000044601F0E9FC94F9455004F1240609E010
:10169000606A48B1304601F046F808B101F0F5F84B
:1016A0006D1E6DB2002DF3DC4FF0FF3684F84560FF
:1016B00001F0ECFC01F0D0FC94F9445004F1100767
:1016C00009E0206948B1384601F02DF808B101F071
:1016D000DCF86D1E6DB2002DF3DC84F84460BDE8CB
:1016E000F04101F0D3BC2DE9F041856B164604466C
:1016F0000027026CFAB17EB1E06801F037FDE168C5
:10170000206C091AE1602268914202D26168081ACD
:10171000E060022E0DD00EE0A06801F027FD216CE4
:10172000A0680844A0606168884204D32068A06073
:1017300001E005B16D1E6D1CA5633846BDE8F08162
:101740002DE9FF4F83B01F468B4604004FF0000683
:1017500005D140F2AD2293A199A001F089FDBBF122
:10176000000F07D1206C28B140F2AE228DA194A0C9
:1017700001F07EFD022F08D1E06B012805D040F278
:10178000AF2288A18EA001F073FD01F082F838B974
:10179000059828B140F2B22282A189A001F068FD2B
:1017A0004FF0000A4FF08058DFF8249201F054FC0B
:1017B000A06BE16B884205D3022F03D00598C8B116
:1017C000DEB11EE03A4659462046FFF78CFF616ABB
:1017D00019B104F1240000F0A6FF28B1C9F8008077
:1017E000BFF34F8FBFF36F8F01F050FC012007B0A4
:1017F000BDE8F08F01F04AFC21E0684601F001F8F5
:10180000012601F043FC00F0A5FC01F025FC94F951
:101810004400401C01D184F844A094F94500401CC8
:1018200001D184F845A001F031FC05A9684600F01B
:10183000F9FF30B12046FFF721FF00F0FDFB00204B
:10184000D5E701F009FCA06BE16B884201D10125CD
:1018500000E0002501F01AFC95B104F11000059993
:1018600000F023FF2046FFF709FF00F0E5FB00280A
:101870009CD1C9F80080BFF34F8FBFF36F8F95E7FE
:101880002046FFF7FBFE00F0D7FB8FE72DE9F0477E
:101890001F4690468946040005D140F24D3241A1D1
:1018A00047A001F0E5FCB9F1000F07D1206C28B189
:1018B00040F24E323BA142A001F0DAFC022F08D1E7
:1018C000E06B012805D040F24F3236A13CA001F078
:1018D000CFFC01F000FC5020EFF3118680F311885B
:1018E000BFF34F8FBFF36F8FA06BE16B884206D3BE
:1018F000022F04D0002086F31188BDE8F08794F908
:1019000045503A4649462046FFF7EDFE681C04D094
:101910006D1C84F845500120EDE7606A0028FAD07C
:1019200004F1240000F0FFFE0028F4D0B8F1000F0D
:10193000F1D00121C8F80010EDE770B50E460400A3
:1019400005D140F2CD3217A11DA001F091FC206C11
:1019500028B140F2D13213A119A001F089FC20680E
:1019600038B9606828B140F2D6320EA114A001F057
:101970007FFC01F0B0FB5020EFF3118580F311885C
:10198000BFF34F8FBFF36F8FA16BE06B884231D9EC
:1019900094F94500491CA163411C1DD0401C84F8EA
:1019A000450017E02E2E5C2E2E5C46726565525463
:1019B0004F535C7372635C71756575652E630000CF
:1019C0004572726F723A25732C25640D0A0000006F
:1019D00004ED00E001200EE0606A0028E1D004F18F
:1019E000240000F0A0FE0028DBD0002ED9D001207A
:1019F0003060D6E7002085F3118870BD30B4026CEA
:101A00000B46002A0BD0C1681144C1604468A14252
:101A100001D30168C16030BC184601F0A7BB30BCDF
:101A200070472DE9FF4F83B09B468A4604004FF074
:101A3000000607D14FF48A62AFF29801AFF280003E
:101A400001F016FCBAF1000F09D1206C38B140F258
:101A50005142AFF2B001AFF2980001F009FC00F082
:101A600018FF48B9059838B140F25442AFF2CC01A2
:101A7000AFF2B40001F0FCFB4FF000094FF08057CB
:101A8000DFF8448301F0E8FAA56B0DB35146204618
:101A9000E668FFF7B3FFBBF1000F11D0E660606AA4
:101AA00050B104F1240000F03EFE28B1C8F80070E7
:101AB000BFF34F8FBFF36F8F01F0E8FA012096E676
:101AC0006D1EA56320690028F6D004F11000EAE736
:101AD000059808B11EB106E001F0D8FA27E0684683
:101AE00000F08FFE012601F0D1FA00F033FB01F087
:101AF000B3FA94F94400401C01D184F8449094F95D
:101B00004500401C01D184F8459001F0BFFA05A9B9
:101B1000684600F087FE002820460AD0FFF7AEFD99
:101B200000F08AFA204600F041F90028AAD00020EF
:101B30005DE600F03BF990B104F12400059900F056
:101B4000B4FD2046FFF79AFD00F076FA002899D1FF
:101B5000C8F80070BFF34F8FBFF36F8F92E7204636
:101B6000FFF78CFD00F068FA8CE72DE9F04790460E
:101B70008946040007D140F2EB42AFF2D811AFF230
:101B8000C01001F075FBB9F1000F09D1206C38B11C
:101B900040F2EC42AFF2F411AFF2DC1001F068FB5E
:101BA00001F099FA5020EFF3118780F31188BFF309
:101BB0004F8FBFF36F8FA66BF6B194F9445049462F
:101BC0002046FFF71BFF761EA663681C04D06D1C21
:101BD00084F84450012010E020690028FAD004F174
:101BE000100000F0A0FD0028F4D0B8F1000FF1D0F3
:101BF0000121C8F80010EDE7002087F311887CE68A
:101C00002DE9F0410E46040007D14FF4A762AFF270
:101C10006C21AFF2542001F02BFB4EB9206C48B17F
:101C200040F23952AFF28421AFF26C2001F020FB78
:101C3000206C38B940F23A52AFF29821AFF28020CE
:101C400001F016FB01F047FA5020EFF3118580F305
:101C50001188BFF34F8FBFF36F8FA06B30B1314648
:101C60002046E768FFF7CAFE0120E76085F3118888
:101C700064E510B5040007D14FF4AD62AFF2DC218A
:101C8000AFF2C42001F0F4FA01F0E6F9A46B01F020
:101C9000FDF9204610BD10B5040007D140F27A527C
:101CA000AFF20031AFF2E82001F0E2FA01F0D4F92E
:101CB000D4E90E10441A01F0E9F9204610BD10B520
:101CC000040007D140F28A52AFF22831AFF210304F
:101CD00001F0CEFAA06B10BD3C4A002102EBC1031B
:101CE0005B68834206D1002042F8310002EBC1015B
:101CF00048607047491C0A29F0D3704710B50400AA
:101D000007D140F29652AFF26431AFF24C3001F09D
:101D1000AFFA2046FFF7E0FF2046BDE8104001F093
:101D2000B0B810B5040007D140F29A62AFF28C311E
:101D3000AFF2743001F09CFAA06B08B1002010BD26
:101D4000012010BD10B5040007D140F2BC62AFF213
:101D5000AC31AFF2943001F08BFAA06BE16B8842AA
:101D600001D1012010BD002010BD10B5174B00227D
:101D700053F832401CB1521C0A2AF9D310BD43F863
:101D8000321003EBC201486010BD10B500240F4AA9
:101D9000214602EBC1035B68834202D152F8314015
:101DA00002E0491C0A29F4D3204610BD10B50446B0
:101DB00001F052F9A06B20B1002401F067F9204630
:101DC00010BD0124F9E7000004ED00E02406002026
:101DD0002DE9F041054601F03FF9FE4EB068401C88
:101DE000B0603068FC4F10B1706930B32BE03560E3
:101DF000B068012827D1002404EB840007EB8000A1
:101E0000FFF796FB641C202CF6D3F448FFF790FBF9
:101E1000F2481430FFF78CFBF0482830FFF788FBBE
:101E2000EE483C30FFF784FBEC485030FFF780FB76
:101E3000EA4870631430B06305E03068E96AC06A4C
:101E4000884200D83560706A0121401C7062E86ADF
:101E5000326981401143316100EB800007EB800063
:101E6000291DFFF773FB01F011F9706900280CD0F0
:101E70003068E96AC06A884207D2D9494FF0805079
:101E80000860BFF34F8FBFF36F8FBDE8F0812DE97E
:101E9000FF5F8346DDE90E87994616468A46900025
:101EA00000F084FF05001AD04C2000F07FFF0400F2
:101EB00012D025630021CDE90241CDE900874B46D0
:101EC00032465146584600F0ADFE2046FFF780FFEF
:101ED000012004B0BDE8F09F284600F0D2FF4FF08B
:101EE000FF30F6E770B5044601F0B6F8B94D04B915
:101EF0002C68201DFFF74EFB58B9E06AB64A00EB8C
:101F0000800152F8211021B90121814028698843BC
:101F10002861A06A18B104F11800FFF73BFB686A5A
:101F2000401C68622868844208D1AC48211D3C30BE
:101F3000FFF70CFB6868401C686007E0A868401E5B
:101F4000A860204600F0BFFE00F0B0FE01F09EF851
:101F50006869002812D0286884420FD1286B28B104
:101F600040F22C429FA1A6A001F082F99C494FF0BB
:101F700080500860BFF34F8FBFF36F8F70BD2DE9A6
:101F8000F041944F0026386B38B1B869401CB861F5
:101F9000F86900B10126304677E7FD686D1CFD60E9
:101FA00011D1786B006828B140F6EF028DA194A0A2
:101FB00001F05EF9786BB96B7963B863386A401CDD
:101FC000386200F073FEB86ADFF80C82854209D3EC
:101FD000786B006880B1786BC068C46860688542BF
:101FE0000DD2B8623868C06A00EB800158F8210051
:101FF0000128CDD90126CBE74FF0FF30F1E7201DB6
:10200000FFF7C8FAA06A18B104F11800FFF7C2FA86
:10201000E06A01213A6981401143396100EB800196
:1020200008EB8100211DFFF791FAE06A3968C96A5F
:102030008842CDD30126CBE72DE9F047654D00243A
:102040002746286B28B940F2317266A16CA001F0D6
:102050000FF901F001F8286B401E2863286BE0BBE4
:10206000A8685E4928310126B8B3DFF86C9188462C
:10207000D8F80010E9B1D8F80C00C46804F11800D1
:10208000FFF788FA201DFFF785FAE06A2A6906FA49
:1020900000F11143296100EB800109EB8100211D52
:1020A000FFF754FAE06A2968C96A8842E0D3EE6112
:1020B000DEE70CB100F0FAFDAC693CB1FFF75FFF61
:1020C00000B1EE61641EF9D10020A861E86920B179
:1020D000434901273807086000E003E0BFF34F8F52
:1020E000BFF36F8F00F0D2FF3846BDE8F0872DE9CF
:1020F000F041384E0F460446F5683068001DFFF782
:1021000049FA38B9306890F82C10012088403169BC
:1021100081433161601C08D13FB13168BDE8F041B5
:102120002E485030091DFFF711BA30682C44AC42DC
:102130004460316805D2B06BBDE8F041091DFFF77E
:1021400011BA706B091DFFF70DFAB06A844200D214
:10215000B4629AE61F48016B491C016370472DE980
:10216000F0410E4605004FF0000405D140F23E421A
:102170001CA123A001F07CF82EB940F23F4219A126
:102180001FA001F075F8134F386B28B14FF4886227
:1021900014A11BA001F06CF8FFF7DCFFFA682868B7
:1021A0008119904202D9884202D804E0884201D8BD
:1021B000914200D9012429601CB1881A0021FFF73F
:1021C00096FFFFF739FF002826D105494FF08050D0
:1021D00008601DE03C00002074060020F408002088
:1021E00004ED00E02E2E5C2E2E5C46726565525486
:1021F0004F535C7372635C7461736B732E63000086
:102200004572726F723A25732C25640D0A00000026
:10221000BFF34F8FBFF36F8F37E610B5040014D0B4
:10222000FE49096B39B140F28442AFF24801AFF286
:10223000300001F01DF8FFF78DFF00212046FFF769
:1022400056FFFFF7F9FE002807D1F5494FF08050FF
:102250000860BFF34F8FBFF36F8F10BD70B50500DF
:1022600007D140F2AB42AFF28401AFF26C0000F054
:10227000FFFFEA4E3068854201D1002070BD00F0BA
:10228000EBFE6C6900F002FF706B844202D0B06B11
:10229000844201D1022070BDE248844204D1A86A80
:1022A0000028F7D1032070BDDE481438844202D0E4
:1022B0000CB1012070BD042070BD10B5044600F0C3
:1022C000CBFE0CB9D5480468E46A00F0DFFE204676
:1022D00010BD10B5044600F0FEFE5020EFF3118152
:1022E00080F31188BFF34F8FBFF36F8F0CB9CB48CA
:1022F0000468E06A81F3118810BD2DE9F0410026E1
:102300000D460446202908D34FF4A562AFF22C11E4
:10231000AFF2141000F0ACFF1F2500F09DFEBF4F80
:1023200004B93C68E06AA8423BD03968854206D9C6
:102330008C4207D03968C96AA94202D902E08C42AE
:1023400000D101268046E562A069002802DBC5F1C4
:102350002000A061B44D08EB8800616905EB8000A6
:10236000814215D1201DFFF715F9012120B93A69E5
:1023700001FA08F082433A61E06A3A698140114308
:10238000396100EB800005EB8000211DFFF7DEF8CE
:102390003EB1A3494FF080500860BFF34F8FBFF3A9
:1023A0006F8FBDE8F04100F071BE70B59B4D286B9A
:1023B00010B10120E86170BD0020E86128699A4EE3
:1023C000B0FA80F0C0F11F0000EB800456F8240042
:1023D00038B94FF41E62AFF2F411AFF2DC1000F026
:1023E00047FF06EB840000F108024168496841603C
:1023F000914201D149684160C868286070BD70B5DC
:10240000044600F029FE854D04B92C68201DFFF715
:10241000C1F858B9E06A844A00EB800152F82110F3
:1024200021B901218140286988432861A06A18B137
:1024300004F11800FFF7AEF8211D7A48FFF786F87F
:1024400000F024FE686928B100F006FE00F02EFCC2
:1024500000F01CFE2868844213D1686990B1286B93
:1024600038B140F2D752AFF28421AFF26C2000F0C5
:10247000FFFE6B494FF080500860BFF34F8FBFF3F2
:102480006F8F70BD6748A9680068884202D100203C
:10249000286070BDBDE8704087E770B50025040076
:1024A00007D140F2FA52AFF2C421AFF2AC2000F0F3
:1024B000DFFE5C496069884205D1A06A28398842FC
:1024C00001D000B90125284670BD70B504002BD09D
:1024D000524D2868844231D000F0BEFD2046FFF7FF
:1024E000DCFFE8B1201DFFF755F8E06A01212A69F9
:1024F0008140114329614C4900EB800001EB8000D1
:10250000211DFFF723F8E06A2968C96A884207D3CA
:1025100043494FF080500860BFF34F8FBFF36F8F78
:10252000BDE8704000F0B2BD40F21B62AFF24C312A
:10253000AFF23430BDE8704000F09ABE70BD2DE9B6
:10254000F0410026040007D140F24962AFF26C313D
:10255000AFF2543000F08CFE00F0BDFD5020EFF3E0
:10256000118580F31188BFF34F8FBFF36F8F204623
:10257000FFF793FFF0B1294F386B20B1294804F1E0
:102580001801283814E0E06A3968C96A884200D323
:102590000126201DFEF7FEFFE06A01213A69814015
:1025A00011433961204900EB800001EB8000211DBF
:1025B000FEF7CCFF85F31188304666E41A4E4FF0E3
:1025C0008054174D00F089FB30680128FAD92C603F
:1025D000BFF34F8FBFF36F8FF4E71CB50F48002494
:1025E0002C30CDE900402346802210A11148FFF78E
:1025F0004EFC01280CD0401C2BD140F2D662AFF229
:102600001C41AFF2044002B0BDE8104000F030BE03
:10261000502080F31188BFF34F8F0DE03C00002065
:1026200004ED00E0440900207406002049444C45B4
:1026300000000000BD250008BFF36F8FFF484FF07A
:10264000FF31816201214161C460BDE81C4000F09E
:10265000C1BC1CBD502080F31188BFF34F8FBFF366
:102660006F8FF6490020486100F0EABCF348C0686B
:10267000704710B500F02FFDF048C06810BDEF485E
:102680008068704710B510B104461CB10AE0EB48F1
:102690000468FAE740F2C372AFF2B841AFF2A0406B
:1026A00000F0E6FD04F1340010BD70B50D460400E5
:1026B00007D14FF41F62AFF2D441AFF2BC4000F03B
:1026C000D7FDDE48016820461831FEF74BFF28464B
:1026D000BDE8704001210AE52DE9F04117460E469C
:1026E000050007D140F60122AFF20851AFF2F040E9
:1026F00000F0BEFDD14C206B38B940F60522AFF298
:102700001C51AFF2045000F0B3FD216846F00040C8
:102710008861216828461831FEF718FF3846BDE861
:10272000F0410121E3E42DE9F041C068C4683CB9FF
:1027300040F64A22AFF25451AFF23C5000F098FDFF
:1027400004F118000746FEF725FFBC4D286B012653
:1027500058B13946BA48FEF7F9FEE06A2968C96AF5
:10276000884212D90120EE6116E4201DFEF712FF07
:10277000E06A2A6906FA00F111432961B14900EBC8
:10278000800001EB8000211DE5E7002004E470B526
:10279000AA4D06460C46286B38B940F67C22AFF2AB
:1027A000BC51AFF2A45000F063FD44F00040306033
:1027B000F4683CB940F68422AFF2D851AFF2C05071
:1027C00000F056FD3046FEF7E5FE201DFEF7E2FE66
:1027D000E06A01262A6906FA00F111432961994944
:1027E00000EB800001EB8000211DFEF7AFFEE06AE8
:1027F0002968C96A884202D90120EE6170BD0020B3
:1028000070BD10B5040007D140F6A122AFF22C61D3
:10281000AFF2146000F02CFD8848016A2160C068A6
:10282000606010BD70B50D46040007D140F6AB22C4
:10283000AFF25061AFF2386000F01AFD3DB940F6DA
:10284000AC22AFF26061AFF2486000F011FD00F021
:1028500003FC7A4AD06829684B1C0FD02368126A9F
:10286000934202D0626882420AD96268801A884222
:1028700006D2081A28602046FFF7C3FF002400E0B4
:10288000012400F003FC204670BD6C490120C861A2
:1028900070476A48416919B1006B18B10020704750
:1028A0000120704702207047644908680A688069FF
:1028B000D26A0968C2F120028A61704770B50C467D
:1028C000064600F0C9FB5D4D2868406C80B9296858
:1028D000012081F848005CB101212046FFF707FC88
:1028E00059494FF080500860BFF34F8FBFF36F8F8F
:1028F00000F0CCFB00F0B0FB2868446C002034B141
:1029000016B12968486402E02A68611E516429688A
:1029100081F8480000F0BAFB204670BD2DE9F04177
:102920001E4615468846074600F096FB434C206835
:1029300090F84800022814D02068416CB9434164E3
:102940002168012081F848005EB101213046FFF77F
:10295000CEFB3D494FF080500860BFF34F8FBFF36F
:102960006F8F00F093FB00F077FB15B12068406C8F
:102970002860206890F8480001280DD02068416C3C
:1029800021EA0801416401252168002081F84800FE
:1029900000F07CFB28463FE40025F5E72DE9F041F7
:1029A0001F4690460D4604004FF0010607D14FF434
:1029B0007562AFF2D071AFF2B87000F059FC00F060
:1029C0004BFB0FB1606C386094F84800022184F82A
:1029D0004810B8F1050F0ED2DFE808F00D03060C21
:1029E0000A00616C294301E0616C491C616402E0EA
:1029F000022803D06564012802D033E0002631E0CC
:102A0000201DFEF7C7FD0D4DE06A01212A698140B6
:102A1000114329610B4900EB800001EB8000211D6F
:102A2000FEF794FDA06A38B140F68372AFF64C0110
:102A3000AFF6340000F01CFCE06A07E03C00002028
:102A40001C0900207406002004ED00E02968C96A12
:102A5000884207D9B4494FF080500860BFF34F8FC8
:102A6000BFF36F8F00F012FB3046A6E52DE9F0476B
:102A70001F46DDF8209092460D4604004FF00108F5
:102A800007D140F6B172AFF6A401AFF68C0000F0AA
:102A9000EFFB00F020FB5020EFF3118680F311884C
:102AA000BFF34F8FBFF36F8F0FB1606C386094F836
:102AB0004800022184F84810BAF1050F0ED2DFE871
:102AC0000AF00D03060C0A00616C294301E0616CF9
:102AD000491C616402E0022803D06564012803D028
:102AE00031E04FF000082EE0A06A38B140F6F372F2
:102AF000AFF61011AFF6F80000F0BAFB8B4D286B63
:102B0000012778B104F118018948FEF71FFDE06A3A
:102B10002968C96A884216D9B9F1000F12D0C9F8DC
:102B2000007010E0201DFEF735FDE06A2A6907FA03
:102B300000F11143296100EB80017E4800EB810028
:102B4000211DE2E7EF6186F311884046BDE8F0877A
:102B50002DE9F0418846040007D141F21E02AFF68C
:102B60007C11AFF6641000F083FB00F0B4FA502043
:102B7000EFF3118780F31188BFF34F8FBFF36F8F8F
:102B800094F84800022184F84810616C491C616483
:102B900001282ED1A06A38B141F24302AFF6BC1130
:102BA000AFF6A41000F064FB604D286B012678B1ED
:102BB00004F118015E48FEF7C9FCE06A2968C96A99
:102BC000884216D9B8F1000F12D0C8F8006010E0A2
:102BD000201DFEF7DFFCE06A2A6906FA00F11143C6
:102BE0002961544900EB800001EB8000211DE2E7E0
:102BF000EE6187F31188E0E410B558B1044600F0A7
:102C00002BFA94F84800022807D0002400F03EFA7E
:102C1000204610BD45480468F1E7002084F84800CC
:102C20000124F3E72DE9F0470E46DDE909848246E9
:102C30006FF00301206B01EB82010844089D20F036
:102C400007079946780705D040F219323AA141A00A
:102C500000F00EFB00202218315C82F83410315C49
:102C600011B1401C1028F6D3002684F84360202DB3
:102C700000D31F25201DE562FEF765FC04F1180056
:102C8000FEF761FC2461C5F120006462A061666406
:102C900084F848604A465146384600F07EF9206084
:102CA000B8F1000F01D0C8F800404FE71F48416B52
:102CB000096829B1416BC968C96849688162704770
:102CC0004FF0FF31FAE710B50446006B00F0D9F879
:102CD0002046BDE8104000F0D4B870B5144E134D36
:102CE00014361CE0FFF736FA306820B10024FFF7F5
:102CF000A3F9A4B901E00124F9E700F0ADF9F06807
:102D0000C468201DFEF746FCA868401EA8606868DD
:102D1000401E686000F0BAF92046FFF7D4FF6868EB
:102D20000028DFD170BD000004ED00E03C00002071
:102D30001C090020740600202E2E5C2E2E5C46728C
:102D4000656552544F535C7372635C7461736B734B
:102D50002E6300004572726F723A25732C25640D44
:102D60000A00000030B5744900E011460A6882424A
:102D7000FBD34B685C18844203D140681844486018
:102D8000084643681C18944209D16B4C103C2468D7
:102D9000A24209D052681A4442600A68126802606E
:102DA000814200D0086030BD0460F9E72DE9F041B0
:102DB00005460026FFF7CEF95F4F103F386808B987
:102DC00000F098F8F86805424ED1002D4CD0083537
:102DD00068070BD005F00700C0F10800054468073C
:102DE00004D0B82255A15FA000F042FA002D3BD0DC
:102DF0007868854238D850490846046801E0214681
:102E000004466068A84202D220680028F7D13868DA
:102E1000B846844228D00E6820680860606808368A
:102E2000401B10280ED96719780704D0DE2243A171
:102E30004CA000F01DFA6068401B78603846656061
:102E4000FFF790FF6168D8F804004246401AC8F8BE
:102E50000400D8F80830984200D29060D8F80C00EE
:102E600001430020C4E90001FFF7E6F8700705D030
:102E70004FF4887231A13BA000F0FAF93046BDE86A
:102E8000F08170B500282BD02B4DA0F10804103D27
:102E90006068E968084205D140F2231227A131A0F9
:102EA00000F0E6F9206828B14FF4927223A12DA01A
:102EB00000F0DEF96068E968084211D02268002A53
:102EC0000ED188436060FFF745F96068696808447F
:102ED00068602046FFF746FFBDE87040FFF7ACB8DA
:102EE00070BD154810384068704713481038806826
:102EF000704770471F484FF41041420706D0C01D6D
:102F00001C4920F00700411AC1F510410A4A00236C
:102F10000144C2E900030839103A21F007011160A9
:102F20004B600B600B1AC0E9001393604FF0004038
:102F30005360D06070470000880000202E2E5C2E69
:102F40002E5C4672656552544F535C706F72745CB0
:102F50004D656D4D616E675C686561705F342E63B1
:102F6000000000004572726F723A25732C25640DC3
:102F70000A0000005809002069484068401C04D03D
:102F8000F42268A171A000F073F9502080F3118839
:102F9000BFF34F8FBFF36F8FFEE710B5031F4FF0E6
:102FA00080741C601B1F21F001011960191F6B4BFD
:102FB0000B60143940380A6010BD69484FF47A71CB
:102FC0000068B0FBF1F14FF0E020491E416107219C
:102FD000016170471CB5634908780190FF200870B3
:102FE00008788DF800009DF800004D4A00F0500070
:102FF00010700720906007E09068401E90609DF878
:10300000000040008DF800009DF800000006F3D499
:10301000107A000200F4E060906001980870524855
:10302000016841F470010160016841F07041016084
:10303000FFF7C3FF00205060FDF796F800201CBD8D
:1030400037484068B0F57A7F05D04FF4B67235A1A5
:103050003EA000F00DB97047502080F31188BFF3F7
:103060004F8FBFF36F8F2E494868401C486001287E
:103070000BD13D481C38006810F0FF0F05D040F21E
:103080007B1228A131A000F0F3B8704710B5244C92
:10309000606828B94FF4C17222A12CA000F0E8F8B2
:1030A0006068401E606001D180F3118810BD10B5CA
:1030B000502080F31188BFF34F8FBFF36F8FFEF75F
:1030C0005EFF20B128494FF080501C390860002075
:1030D00080F3118810BD10B5FDF77CF8104C102856
:1030E0000CD300F1E02090F8F0032178884205D25B
:1030F0004FF428720BA115A000F0BAF81A48143842
:103100000068A16800F4E060884207D9BDE810407B
:103110004FF42C7203A10DA000F0AAB810BD00005E
:10312000900000202E2E5C2E2E5C46726565525457
:103130004F535C706F72745C525644535C41524DF5
:103140005F434D335C706F72742E63004572726F13
:10315000723A25732C25640D0A000000792F0008AF
:103160000000002000E400E020ED00E040EA010360
:103170009B0703D009E008C9121F08C0042AFAD22D
:1031800003E011F8013B00F8013B521EF9D27047F1
:10319000D2B201E000F8012B491EFBD27047002299
:1031A000F6E710B513460A4604461946FFF7F0FF46
:1031B000204610BD30B505462A460B4612F8010BD5
:1031C00013F8014B08B1A042F8D01CB1002802D07E
:1031D0006D1CF1E7284630BD421C10F8011B002988
:1031E000FBD1801A704730B504460020034600E04A
:1031F0005B1C934203D2E05CCD5C401BF8D030BD39
:1032000030B505460020034600E05B1C934205D222
:10321000EC5CC85C201A01D1002CF6D130BD30B571
:103220000B46014600202022012409E021FA02F584
:103230009D4205D303FA02F5491B04FA02F528441E
:10324000151EA2F10102F1DC30BD0000064C074D55
:1032500006E0E06840F0010394E807009847103466
:10326000AC42F6D3FCF768FF54350008743500080B
:103270000FB4054B10B503A9044A029800F018F8E2
:1032800010BC5DF814FB0000CB0D00089C00002072
:1032900002E008C8121F08C1002AFAD1704770471F
:1032A000002001E001C1121F002AFBD1704700007D
:1032B0002DE9FF4F8BB09A460F460546002606E0E3
:1032C00025280BD052460D9990476D1C761C287806
:1032D0000028F5D10FB03046BDE8F08F0024A0469D
:1032E0000122604900E0044315F8013F203B02FA47
:1032F00003F00842F7D128782E2817D115F8010FCE
:1033000044F004042A280ED06FF02F022878A0F190
:10331000300109290AD808EB880102EB410100EBD2
:1033200001086D1CF2E757F8048B6D1C287869289A
:103330003ED006DC0028CDD063280BD0642804D111
:1033400036E0732810D075284BD052460D9990471F
:10335000761C85E017F8040B8DF8000000208DF82E
:103360000100E946012003E057F8049B4FF0FF30CD
:1033700061074FF0000401D40AE0641C44450DDAF3
:103380008442FADB19F804100029F6D106E0641C27
:103390008442FCDB19F804100029F8D1264404E02B
:1033A00019F8010B52460D999047641EF8D257E068
:1033B00001CF4FF00A0B002802DA40422D2102E033
:1033C000210504D52B218DF82410012103E0E1070C
:1033D00005D02021F7E70DF1200908910CE000212C
:1033E000F9E701CF4FF00A0BF9E75946FFF717FF4E
:1033F00001F1300209F8012D0028F6D1ADEB0900EA
:1034000000F1200B600701D44FF00108D84502DD20
:10341000A8EB0B0000E000208046002406E009A88D
:103420005246005D0D999047641C761C08988442B2
:10343000F5DB04E0302052460D999047761CB8F138
:103440000001A8F10108F5DC05E019F8010B52466E
:103450000D999047761CBBF10001ABF1010BF4DC38
:103460006D1C34E7092801000D0A5B68656C705D0E
:103470000D0A202A2073686F7720636F6D6D616E6F
:1034800064730D0A0D0A005B636C735D0D0A202ADC
:1034900020636C6561722074686520736372656572
:1034A0006E0D0A0D0A005B6563686F5D0D0A202AC8
:1034B000206563686F20313A206563686F206F6E06
:1034C0000D0A202A206563686F20303A2065636802
:1034D0006F206F66660D0A0D0A005B7265626F6F82
:1034E000745D0D0A202A207265626F6F74204D434F
:1034F000550D0A0D0A004035000868340008000028
:103500000000410F0008483500088734000800001B
:1035100000005F0F000838350008A63400080000DE
:1035200000007D0F00084C350008DA340008000068
:103530000000A70F000800006563686F000000002E
:1035400068656C7000000000636C73007265626FE8
:103550006F7400007435000800000020A000000017
:103560009032000814360008A0000020B89C00002B
:10357000A032000800A24A04000000000000000081
:1035800001020304060708090204060800000000FF
:1035900001020304010203040607080900000000F9
:1035A000000000000000000000000000000000001B
:1035B000000000000000000000000000000000000B
:1035C00000000000000000000000000000000000FB
:1035D00000000000000000000000000000000000EB
:1035E00000000000000000000000000000000000DB
:1035F00000000000000000000000000000000000CB
:103600000000000000000000AAAAAAAA0000000012
:0436100000000000B6
:0400000508000131BD
:00000001FF
